:020000040800F2
:10000000F006002029020008810F0008790F00087F
:100010007D0F000821040008951000080000000072
:10002000000000000000000000000000890F000830
:100030002504000800000000850F00088D0F00084F
:10004000430200084302000843020008430200087C
:10005000430200084302000843020008430200086C
:10006000430200084302000843020008430200085C
:10007000430200084302000843020008430200084C
:10008000430200084302000843020008430200083C
:10009000430200084302000843020008430200082C
:1000A000430200084302000843020008430200081C
:1000B000430200084302000843020008430200080C
:1000C00043020008430200084302000843020008FC
:1000D00043020008430200084302000843020008EC
:1000E00043020008430200084302000843020008DC
:1000F00043020008430200084302000843020008CC
:1001000043020008430200084302000843020008BB
:1001100043020008430200084302000843020008AB
:10012000430200084302000843020008430200089B
:10013000430200084302000843020008430200088B
:10014000430200084302000843020008430200087B
:10015000430200084302000843020008430200086B
:10016000430200084302000843020008430200085B
:100170004302000843020008430200080000000098
:10018000430200084302000800F002F800F03CF8C7
:100190000AA090E8000C82448344AAF10107DA45E2
:1001A00001D100F031F8AFF2090EBAE80F0013F0F8
:1001B000010F18BFFB1A43F001031847A4100000F9
:1001C000C4100000103A24BF78C878C1FAD852078A
:1001D00024BF30C830C144BF04680C6070470000C1
:1001E0000023002400250026103A28BF78C1FBD840
:1001F000520728BF30C148BF0B6070471FB501F0E0
:1002000016F81FBD10B510BD00F0D0F81146FFF76D
:10021000F5FF00F041FF00F0EEF803B4FFF7F2FF46
:1002200003BC00F0F5F80000094880470948004782
:10023000FEE7FEE7FEE7FEE7FEE7FEE7FEE7FEE796
:10024000FEE7FEE704480549054A064B70470000F3
:10025000910F000889010008F0000020F00600203E
:10026000F0020020F002002053EA020C00F0698046
:100270002DE9F04B4FF00006002B1FBFB3FA83F5BA
:1002800003FA05F424FA05F65E4012BF1643B2FAEB
:1002900082F502FA05F4C5F120051EBF22FA05FC1D
:1002A00044EA0C04203556EA044C4FEA144418BFC3
:1002B000641C4FF000084FF00009904271EB030CF2
:1002C00039D3002919BFB1FA81F701FA07F6B0FA5C
:1002D00080F700FA07F6C7F120071EBF20FA07FCD7
:1002E00046EA0C062037B6FBF4FCA7EB0507103FE7
:1002F00007F01F0BCBF120062CFA06F60CFA0BFBCD
:1003000044BFB3460026202FA4BF5E464FF0000B2B
:100310005BEA060C08BF4FF0010B19EB0B0948EB29
:100320000608ABFB027C06FB02CC0BFB03CCC01B1C
:1003300071EB0C01C1E70B46024641464846BDE859
:10034000F08B13B5084318BF4FF0FF300146AFF3F1
:100350000080BDE81C4070474FF0000200B5134616
:1003600094469646203922BFA0E80C50A0E80C50D5
:10037000B1F12001BFF4F7AF090728BFA0E80C5086
:1003800048BF0CC05DF804EB890028BF40F8042B7F
:1003900008BF704748BF20F8022B11F0804F18BFEC
:1003A00000F8012B7047704770477047754600F0A2
:1003B0002BF8AE4605006946534620F007008546F7
:1003C00018B020B5FFF73EFFBDE820404FF0000613
:1003D0004FF000074FF000084FF0000BAC46ACE8C0
:1003E000C009ACE8C009ACE8C009ACE8C00921F01C
:1003F00007018D46704710B50446AFF300802046D4
:10040000BDE81040FFF709BF00487047100000200A
:1004100001491820ABBEFEE726000200704700002D
:10042000FEE70000704700002DE9F04F82B000F1B8
:100430003E4241F6004502F1FF77C4F20205082270
:1004400043F6004E4FEAB726A84208BF0722C4F27F
:10045000010E072E38BF4FEAB722012500260027DC
:100460004FF00008009208E008F101080437B8F1E5
:10047000100F06F1020600F0A7800C6805FA08F9D3
:1004800014EA090FF0D0D1F804B003220BF0030CEA
:10049000ACF10104B240012C6FEA020A10D8826864
:1004A000CC6802EA0A02B440224382604268CBF37D
:1004B000001422EA090204FA08F42243426005E02B
:1004C000BCF1030F02D14FF0030C20E0C2688C682E
:1004D00002EA0A02B4402243BCF1020FC26016D104
:1004E0006FF0030202EA58020244D2F820C007F07B
:1004F0001C050F230C69AB402CEA030304FA05F535
:100500002B431362D1F804B001250BF0030C0268F1
:100510000CFA06F302EA0A021A431BF4403F026097
:10052000A2D0002243F644030192C4F202031A68E7
:100530004FF6084C42F480421A601A68CFF6FF7CEE
:1005400002F480420192019A28F00302724452F8A8
:100550000C3007F00C050F24AC40A343009C04FAB8
:1005600005F52B4342F80C30DEF808204B6842EAD0
:10057000090543F60C4CDC0258BF22EA0905CEF807
:100580000850C4F2010CDCF800209C0242EA090584
:1005900058BF22EA0905CCF80050DEF804209C037D
:1005A00042EA090558BF22EA0905CEF80450DEF8F0
:1005B0000020DB0342EA090558BF22EA0905CEF80C
:1005C0000050012550E700BF02B0BDE8F08F0000E9
:1005D000002A08BF090481617047000040F2E8006A
:1005E000C2F200000068704740F2000040F2E801EB
:1005F000C2F20000C2F2000100780A6810440860EC
:100600007047000080B543F60040C4F20200016864
:1006100041F400710160016841F48061016001688A
:1006200041F480710160032000F074F80F2000F0A5
:1006300005F800F027F8002080BD000070B540F2FA
:100640000006C2F2000640F208013278C2F2000150
:100650004FF47A730968B3FBF2F20446B1FBF2F18E
:10066000084600F02FFB0F2C4FF0010508D838B9D1
:100670004FF0FF3021460022002500F01FF8746083
:10068000284670BD82B0002043F640010190C4F2BC
:1006900002014A6842F480424A604A6802F4804299
:1006A0000192019A0090086840F080500860086844
:1006B00000F080500090009802B0704710B54EF6E0
:1006C0000C5CCEF2000CDCF80030C3F3022E8EF08E
:1006D0000704042C28BF0424BEF103034FF0FF3E9F
:1006E0000EFA04F438BF0023A14399400EFA03F335
:1006F0009A43114300F00F0200F160430901043AEC
:1007000003F564436244002848BF02F10C031970EA
:1007100010BD00004EF60C51CEF200010A684FF6F3
:10072000FF031A4060F30A2242F0806040F0FD703F
:10073000086070472DE9F041002800F08B8043F6F7
:100740000808C4F202080446D8F8F8030D4600F081
:100750000700884207D288F8F853D8F8F80300F069
:100760000700A84276D12068810717D5410705D533
:10077000D8F8001041F4E051C8F80010010705D581
:10078000D8F8001041F46041C8F80010D8F8001003
:10079000A26821F0F0011143C8F80010C0073FD152
:1007A000D8F8F80300F00700A84207D988F8F853F2
:1007B000D8F8F80300F00700A8424BD120684107A1
:1007C00007D5D8F80010E26821F4E0511143C8F8C9
:1007D0000010000708D5D8F80000216920F4604017
:1007E00040EAC100C8F8000000F07CF8D8F800101A
:1007F00041F24822C1F30311C0F60002515C40F2FD
:10080000080220FA01F140F20400C2F20000006880
:10081000C2F200021160FFF711FF0020BDE8F08175
:100820006068811E022907D258F8081C89015CBF44
:100830000120BDE8F08111E0012807D158F8081C1B
:1008400089035CBF0120BDE8F08107E058F8081C6F
:10085000890703D40120BDE8F08100BFD8F800105B
:1008600021F003010843C8F80000FFF7B7FE064671
:1008700041F28837D8F80000616800F00C00B0EB56
:10088000810F8DD0FFF7AAFE801BB842F2D903205A
:10089000BDE8F08140F2080043F60801C2F2000012
:1008A000C4F202010068096841F25822C1F38221B2
:1008B000C0F60002515CC8407047000040F20800DA
:1008C00043F60801C2F20000C4F2020100680968A0
:1008D00041F25822C1F34231C0F60002515CC840D7
:1008E0007047000010B543F60404C4F202046068C7
:1008F00000F00C0008280BD0042819BF42F2004079
:10090000C0F2F40047F64000C0F27D1010BD00BFF9
:10091000206821682368490247F64001C0F27D1132
:1009200000F03F02C3F388105CBF42F20041C0F206
:10093000F401A1FB00010023FFF796FC21680222CD
:10094000C1F3014102EB4101B0FBF1F010BD000029
:100950002DE9F04182B0002868D00446007843F6C3
:100960000006C007C4F202060BD0B06800F00C000D
:10097000042840F09F803068800302D5606800281A
:1009800054D0207880071AD5B06810F00C0F09D029
:10099000B06800F00C00082840F0A68070684002A3
:1009A00000F1A2803068800702D5E06801283DD1BF
:1009B0003068216920F0F80040EAC10030602078FA
:1009C000000737D4207840074CD4A56955B3B068E8
:1009D00000F00C00082840F0BB80012D26D0706884
:1009E000E16900F480028A4220D1216A00F03F02CE
:1009F0008A421BD147F6C071626A0140B1EB821F87
:100A000014D1A16A4FF6FF73C903994300F4403231
:100A1000A1F580318A4209D1E16A00F07060B0EB43
:100A2000016F03D1002002B0BDE8F081012002B0C7
:100A3000BDE8F0816069002840F20000C4F2472060
:100A400076D00121C0F8801EFFF7C8FD054600BF23
:100A5000706F8007B6D4FFF7C1FD401B0228F7D99D
:100A6000DDE000BF306C10F080580AD1002001900A
:100A7000306C40F080503064306C00F08050019059
:100A8000019847F20007C4F200073868C00541D456
:100A9000386840F480703860FFF7A0FD054600BF5D
:100AA0003868C00536D4FFF799FD401B0228F7D9F6
:100AB000B5E000BFB06800F00C00082803D17068F2
:100AC00040023FF558AF6068B0F5803F07D0B0F501
:100AD000A02F40F08D80306840F480203060306876
:100AE00040F4803030608DE0E068002852D0002073
:100AF000C4F2472001210160FFF770FD054600BFE9
:100B0000306880073FF554AFFFF768FD401B0228AF
:100B1000F6D984E0A068012805D005284ED1306FB1
:100B200040F004003067306F40F0010030674FE064
:100B30000021C0F8801EFFF751FD0546706F800749
:100B40007FF540AFFFF74AFD401B0228F6D966E06B
:100B50000027C4F2472700203866FFF73FFD022D2B
:100B600005460BD1306880015ED5FFF737FD401B8D
:100B700002284FF00300F5D955E700BF3068800127
:100B80007FF550AFFFF72AFD401B02284FF003000E
:100B9000F4D948E70020C4F2472000210160FFF7A4
:100BA0001DFD0546306880077FF509AFFFF716FD8C
:100BB000401B02284FF00300F4D934E7316F0028BE
:100BC00021F001013167316F21F0040131674DD00F
:100BD000FFF704FD054641F2883700BF306F8007FC
:100BE00056D4FFF7FBFC401BB842F7D917E000BF13
:100BF0003168002821F480313160316821F480218E
:100C000031604FD0FFF7EAFC054600BF3068800333
:100C10003FF5B7AEFFF7E2FC401B6428F6D903208E
:100C200002B0BDE8F08100BF04F11C052FCD0843E0
:100C300040EA8210D9034FF6FF729143A1F580314B
:100C400040EA05600843706001203866FFF7C6FC83
:100C5000044600BF306880013FF5E4AEFFF7BEFCFC
:100C6000001B02284FF00300F4D9DCE6FFF7B6FCC6
:100C7000054641F2883700BF306F800708D5FFF77F
:100C8000ADFC401BB8424FF00300F5D9CBE600BFE6
:100C9000B8F1000F7FF499AE306C20F080503064D2
:100CA00093E600BFFFF79AFC054600BF306880035B
:100CB0007FF567AEFFF792FC401B64284FF00300FE
:100CC000F4D9B0E6411E0020B0EB116F1CBF01202B
:100CD00070474EF21002CEF2000251604EF62351E0
:100CE000CEF20001F0230B70072190601160704775
:100CF000002804BF0120704710B5044690F83D005D
:100D000028B9002084F83C00204600F021F8242077
:100D100084F83D002068C16821F40051C16020467C
:100D200000F040F92068016921F4904101614169B6
:100D300021F02A014161C16841F40051C1600020E5
:100D40002021206484F83D1084F83E1010BD00007E
:100D500080B586B0016844F20040C4F200008142D0
:100D600002D006B080BD00BF002143F630020191E1
:100D7000C4F20202136900F5DE3043F4003313615C
:100D8000136903F400330193019B0191136843F04D
:100D900001031360126802F001020192019A0C2211
:100DA00001920222CDE9022103210491072105913C
:100DB00001A9FFF739FB06B080BD00002DE9F04323
:100DC00081B0044690F83E0020280DD10E4600293F
:100DD0004FF0010000F0CC801746002A00F0C880D8
:100DE00094F83C00012803D1022001B0BDE8F08353
:100DF000012084F83C00002022211D46206484F854
:100E00003E102063FFF7EAFBA785E785A168074648
:100E1000B1F5805F01D1206910B1B046002601E034
:100E20004FF00008002084F83C00E08D002800F01E
:100E30009B8005F101090DE040684FF000086FF359
:100E40005F2026F8020BE08D0138E085E08D002858
:100E500000F08A802068016889060DD4B9F1000F7E
:100E600018D04DB3FFF7BAFBC01BA84224D82068A6
:100E700001688906F6D500BFB8F1000FDCD0A16883
:100E8000B1F5805F14D009B9216989B1406800F0DB
:100E90007F000EE001688906EED4016889065CBF18
:100EA00001685FEA8161E7D401688906F2D5E3E76A
:100EB000406808F8010BC6E7206850E8030F216876
:100EC00020F4D07041E80302E2B1206850E8030F3B
:100ED000216820F4D07041E803029AB1206850E8FC
:100EE000030F216820F4D07041E8030252B120685A
:100EF00050E8030F216820F4D07041E80302002A73
:100F0000DAD100BF206850E8050F216820F0010009
:100F100041E80502DAB1206850E8050F216820F0A9
:100F2000010041E8050292B1206850E8050F2168F0
:100F300020F0010041E805024AB1206850E8050FA1
:100F4000216820F0010041E80502002ADAD12020C2
:100F500084F83D0084F83E00002084F83C00032023
:100F600001B0BDE8F08300BF202084F83E000020DF
:100F700001B0BDE8F0830000FEE70000FEE70000DE
:100F8000FEE700007047000070470000FFF72CBB31
:100F90004EF68850CEF20000016841F47001016005
:100FA0007047000010B504460068D4E902C2236906
:100FB000016921F4405111430161626943EA0C0166
:100FC000E3691143C268194349F20C639A43114320
:100FD000C1604169A26921F4407141F200431143AB
:100FE00040F48062C4F201039A42416102D1FFF7EA
:100FF00065FC01E0FFF74EFCE16963681922B1F579
:10100000004FA0FB020123D15A00DB0FFFF72CF9A0
:1010100048F21F51C5F2EB11A0FB01235A094FF60C
:101020009C73C0F6FF7303F1805302FB030032236D
:1010300003EBC000A0FB01014FF4F87000EA1110AF
:1010400000EB0210C1F3421108442168886010BD12
:101050009A009B0FFFF708F948F21F51C5F2EB11F8
:10106000A0FB01235A094FF69C73C0F6FF7302FBE5
:101070000300322303EB0010A0FB0101F02000EA83
:10108000511000EB0210C1F343110844216888603D
:1010900010BD0000FEE7000092B043F6300647F2B4
:1010A0000005C4F20206C4F20005FFF7ABFA06AC75
:1010B000201D2C21FFF750F900270597CDE9037774
:1010C000CDE901770097306940F080503061306998
:1010D00000F08050009000980097286840F480400D
:1010E0002860286800F48040009000980220069054
:1010F0000120099010200A9020460C97FFF728FC49
:1011000020B1EFF3108072B6FEE700BF0F20CDE9EB
:10111000010701A80021CDE903770597FFF70AFB36
:1011200020B1EFF3108072B6FEE700BF00270A97E8
:101130000197306805F5CE3840F001003060306826
:101140004FF4104100F001000190019801973068C0
:10115000002240F00800306030684FF4104400F086
:101160000800019001984046FFF732FA0120CDE9CE
:10117000070706A9404606940997FFF755F940F27C
:101180007004C2F2000444F20041C4F2000120469F
:1011900040F8341F4FF416510C22C0E90117C0E982
:1011A0000377C0E90527C761FFF7A2FD20B1EFF380
:1011B000108072B6FEE700BF04F13405661C07E03C
:1011C000002740464FF480513A46FFF701FA277056
:1011D0002846314632226423FFF7F0FD6078A1787B
:1011E000E278237980F06C0081F06501084382F099
:1011F00064016279084383F02001084382F06F01A3
:101200000143A07908BF6E280CD0B1FA81F14909D9
:10121000DED06628DCD1E0796628D9D12078002894
:10122000CED1D5E720780128D2D00127C9E7F1EE49
:10123000100A4FF6FF71C0F2C03120EA010040F001
:101240004070E1EE100A704700000000000000004E
:10125000010203040607080900000000010203045C
:10126000801200080000002010000000C4010008E7
:101270009012000810000020E0060000E0010008C5
:1012800001000000100000000024F4000000000035
:040000050800018965
:00000001FF
