:020000040800F2
:100000008804002031160008F5150008F7150008CF
:10001000F9150008FB150008FD1500080000000098
:10002000000000000000000000000000FF150008B4
:10003000011600080000000003160008051600085D
:100040006116000865160008691600086D1600089C
:100050007116000875160008791600087D1600084C
:100060008116000885160008891600088D160008FC
:100070009116000895160008991600089D160008AC
:10008000A1160008A5160008A9160008AD1600085C
:10009000B1160008B5160008B9160008BD1600080C
:1000A000C1160008C5160008C9160008CD160008BC
:1000B000D1160008D5160008D9160008DD1600086C
:1000C000E1160008E5160008E9160008ED1600081C
:1000D000F1160008F5160008F9160008FD160008CC
:1000E0000117000805170008091700080D17000878
:1000F0001117000815170008191700081D17000828
:100100002117000825170008291700082D170008D7
:100110003117000835170008391700083D17000887
:100120004117000845170008491700084D17000837
:100130005117000855170008591700085D170008E7
:100140006117000865170008691700086D17000897
:100150007117000875170008791700087D17000847
:100160008117000885170008891700088D170008F7
:100170009117000895170008991700080000000063
:100180009D170008A1170008F8B50400002C01D144
:100190000120F1E12078C0076FD5DFF8E0030068A7
:1001A00010F00C0004280BD0DFF8D003006810F02A
:1001B0000C0008280ED1DFF8C8030068400209D5FA
:1001C000DFF8C0030068800357D56068002854D169
:1001D0000120D1E16068B0F5803F08D1DFF8A403C9
:1001E000006850F48030DFF89C13086024E06068F9
:1001F000B0F5A02F10D1DFF88C03006850F48020F8
:10020000DFF880130860DFF87C03006850F480306A
:10021000DFF8701308600FE0DFF86803006830F45F
:100220008030DFF860130860DFF85803006830F4AE
:100230008020DFF850130860606800280ED000F0BE
:10024000B1F90500DFF83C030068800315D400F025
:10025000A9F9401B6528F5D303208DE100F0A2F930
:100260000500DFF820030068800306D500F09AF946
:10027000401B6528F5D303207EE12078800754D504
:10028000DFF8F802006810F00C0F0BD0DFF8EC027A
:10029000006810F00C00082818D1DFF8E4020068AC
:1002A000400213D4DFF8DC020068800704D5E06860
:1002B000012801D001205FE1B248006830F0F80069
:1002C000216950EAC100AF4908602EE0E0680028CB
:1002D0001AD00120AC49086000F064F90500A94873
:1002E0000068800706D400F05DF9401B0328F6D3B0
:1002F000032041E1A348006830F0F800216950EA8A
:10030000C100A049086010E000209F49086000F08B
:1003100049F905009B480068800706D500F042F9BE
:10032000401B0328F6D3032026E12078000724D5BC
:100330006069002810D001209449086000F032F96B
:10034000050093480068800717D400F02BF9401B84
:100350000328F6D303200FE100208C49086000F049
:1003600021F905008A480068800706D500F01AF9CF
:10037000401B0328F6D30320FEE02078400740F11D
:100380007F80002783480068C0000FD400200090C1
:100390008048006850F080507E4908607D480068C1
:1003A00010F0805000900098012007007A48006803
:1003B000C00513D47848006850F48070764908600E
:1003C00000F0F0F8050074480068C00506D400F09D
:1003D000E9F8401B0328F6D30320CDE0A0680128EC
:1003E00006D16E48006850F001006C4908601BE0BF
:1003F000A06805280CD16948006850F004006749DE
:1004000008606648006850F00100644908600BE02D
:100410006248006840084000604908605F48006822
:1004200030F004005D490860A06800280FD000F09B
:10043000B9F8050059480068800718D400F0B2F8F0
:10044000401B41F289318842F4D3032094E000F04C
:10045000A9F8050051480068800708D500F0A2F807
:10046000401B41F289318842F4D3032084E0FFB27B
:10047000012F05D14748006830F080504549086099
:10048000A069002877D03D48006810F00C000828CB
:1004900045D0A069022831D100204149086000F010
:1004A00081F8070037480068800106D500F07AF827
:1004B000C01B0328F6D303205EE0E169206A0143F4
:1004C000606A51EA8011A06A4008401E51EA00416A
:1004D000E06A51EA00612A48016001203049086061
:1004E00000F060F8050027480068800143D400F060
:1004F00059F8401B0328F6D303203DE0002028498B
:10050000086000F04FF805001E480068800132D5F1
:1005100000F048F8401B0328F6D303202CE0A06924
:10052000012801D1012027E0154800680600A069D4
:1005300001281ED016F48000E169884219D116F016
:100540003F00216A884214D147F6C0703040616A8A
:10055000B0EB811F0DD116F44030A16A4908491E45
:10056000B0EB014F05D116F07060E16AB0EB016F9E
:1005700001D0012000E00020F2BD00BF0838024099
:10058000043802400038024000004742800E4742D3
:100590007438024040380240007000407038024019
:1005A0006000474201480068704700BF8400002097
:1005B00010B50400002C01D1012033E0A06900280F
:1005C000FFD194F83D00002805D1002084F83C00BC
:1005D000200000F0E2F9242084F83D002068C06883
:1005E00030F400502168C860200000F0D4F8206882
:1005F000006930F49040216808612068406930F05B
:100600002A00216848612068C06850F400502168C1
:10061000C86000202064202084F83D00202084F859
:100620003E00002010BD2DE9FC4707000D0016001C
:100630009846002497F83E00202862D1002D02D071
:10064000B6B2002E01D101205CE097F83C000128F1
:1006500001D1022056E0012087F83C0000203864D8
:10066000222087F83E0000203863FFF79BFF814679
:10067000BE85FE85B868B0F5805F05D13869002871
:1006800002D10024AA4602E02C005FF0000A0020FC
:1006900087F83C00F88D00282ED0CDF800804B461E
:1006A00000222021380000F02FF8002801D003207C
:1006B00028E0002C08D138684068C005C00DAAF8B1
:1006C00000001AF1020A13E0B868B0F5805F05D0A7
:1006D000B868002806D13869002803D13868406816
:1006E000207004E03868406810F07F002070641CBF
:1006F000F88D401EF885CDE7202087F83E000020C9
:1007000000E00220BDE8F6872DE9F04105000E006B
:1007100017009846069C286800683040B04201D116
:10072000012000E00020FFB2B84231D114F1010FE6
:10073000F1D0002C05D0FFF735FFB0EB0800844264
:10074000E9D228680C3050E8000F30F4D070010076
:10075000286810F10C0242E800100028F1D1286846
:10076000143050E8000F400840000100286810F1E4
:10077000140242E800100028F1D1202085F83D0045
:10078000202085F83E00002085F83C00032000E092
:100790000020BDE8F0812DE9F041040020680169E6
:1007A00031F44051E068014320680161A568206987
:1007B000054360690543E06905432068C1686448F2
:1007C000014029432068C1602068416931F44071CB
:1007D000A06901432068416120685E49884203D0D6
:1007E00020685D49884203D100F0CCF9060002E0A0
:1007F00000F0BDF90600E069B0F5004F53D11920B3
:10080000A0FB060162680223A3FB022300F01EFA8C
:100810006421B0FBF1F71920A0FB060162680223F6
:10082000A3FB022300F012FA80461920A0FB060168
:1008300062680223A3FB022300F008FA6421B0FBE4
:10084000F1F1642000FB1181C80032306421B0FB5B
:10085000F1F0400010F4F87010EB071007001920B9
:10086000A0FB060162680223A3FB022300F0EEF95D
:1008700080461920A0FB060162680223A3FB022325
:1008800000F0E4F96421B0FBF1F1642000FB118178
:10089000C80032306421B0FBF1F010F00700C0193D
:1008A0002168886051E01920A0FB060162680423DA
:1008B000A3FB022300F0CAF96421B0FBF1F7192071
:1008C000A0FB060162680423A3FB022300F0BEF92B
:1008D00080461920A0FB060162680423A3FB0223C3
:1008E00000F0B4F96421B0FBF1F1642000FB118148
:1008F000080132306421B0FBF1F010F0F00010EB91
:10090000071007001920A0FB060162680423A3FB5F
:10091000022300F09BF980461920A0FB06016268C3
:100920000423A3FB022300F091F96421B0FBF1F151
:10093000642000FB1181080132306421B0FBF1F02A
:1009400010F00F00C01921688860BDE8F081000038
:10095000F369FFFF001001400014014081B0002046
:1009600000902948006850F48040274908602648D4
:10097000006810F480400090009800200090234808
:10098000006850F08050214908602048006810F04D
:1009900080500090009801B0704710B586B00400F8
:1009A00001A8142100F06AFA20681949884229D167
:1009B000002000901548006850F40030134908608A
:1009C0001248006810F40030009000980020009059
:1009D0001048006850F001000E4908600D4800689A
:1009E00010F00100009000980C200190022002906D
:1009F00000200390032004900720059001A90648D9
:100A000000F040FA06B010BD4438024040380240C1
:100A100000440040303802400000024070B504003D
:100A20000D00002C01D101209DE05C48006810F011
:100A30000700A84209D2594805705848006810F0CC
:100A40000700A84201D001208DE02078800719D549
:100A50002078400705D55248006850F4E0505049CE
:100A600008602078000705D54D48006850F46040C4
:100A70004B4908604A48016831F0F001A068014321
:100A8000474801602078C00736D56068012805D145
:100A900044480068800313D4012064E060680228A1
:100AA00002D06068032805D13E480068800107D461
:100AB000012058E03B480068800701D4012052E043
:100AC000374801688908890060680143344801603B
:100AD000FFF768FD06003248006810F00C006168FE
:100AE000B0EB810F08D0FFF75DFD801B41F289312B
:100AF0008842F0D3032036E02848006810F0070051
:100B0000854209D2254805702448006810F0070086
:100B1000A84201D0012026E02078400707D52048D0
:100B2000016831F4E051E06801431D48016020781C
:100B3000000708D51A48006830F46040216950EA7F
:100B4000C1001749086000F037F81749144A1268C5
:100B5000C2F30312895CC840144908601448006855
:100B600000F0CAFA002070BD10480068704780B5D8
:100B7000FFF7FAFF0F490A4A1268C2F38222895C22
:100B8000C84002BD80B5FFF7EFFF0A49044A12686A
:100B9000C2F34232895CC84002BD0000003C024002
:100BA00008380240003802402016000804000020E7
:100BB0000000002058160008F0B50024002500268B
:100BC00000271E48006810F00C00002804D00428FC
:100BD00004D0082804D02FE019482EE019482CE052
:100BE0001948006810F03F000400174800684002F0
:100BF0000CD515480068C0F388101249A1FB00010C
:100C00002200002300F022F805000BE00E480068E7
:100C1000C0F388100A49A1FB00012200002300F064
:100C200015F8050008480068C0F30140401C40006A
:100C30000600B5FBF6F000E00148F0BD08380240C0
:100C40000024F40040787D0104380240B3BBD9B1E0
:100C5000B2F5803F7DD2022A1ED98C46B1FBF2F15B
:100C600002FB11C31B0443EA1043B3FBF2FC02FB7B
:100C70001C3380B240EA0343B3FBF2F002FB1032B4
:100C800040EA0C4000237047022A05D98446B0FB95
:100C9000F2F002FB10C270474AB105D100F0010228
:100CA00049085FEA3000704700220023704700F0D7
:100CB00049BA0B000200002100207047904271EBFE
:100CC000030CF6D3B3F5803F2FD2F0B5B3FA83F718
:100CD000B1FA81F4A7F10F0E3D1B5340CEF120066F
:100CE00002FA0EF2F3415340B5F10F0746D80F3C1C
:100CF0002C444140C4F12006A040F1414140B1FBE9
:100D0000F3F603FB1611A2FB0645001BA94102D214
:100D1000761E8018594180EA010221FA0EF362FA28
:100D20000EF200215A403046F0BD30B4B1FBF3FC66
:100D300003FB1C11A2FB0C45001BA94103D2ACF123
:100D4000010C8018594130BC02460B466046002118
:100D50007047B2F1807F65D3F0B5B2FA82F7B1FA8D
:100D600081F4C7F10F063D1B22FA06F307F1110EBD
:100D7000F24120355A40B5F10F07B8D94140C4F1CE
:100D80002006A040F1414140B1FBF3FC03FB1C11E4
:100D9000A2FB0C45001BA94103D2BCF1010C801839
:100DA00059410F2F12D30F3FC90341EA5041B1FB04
:100DB000F3F603FB1611A2FB0645D4EBC030A941A4
:100DC00002D2761E8018594146EACC3C07B3414016
:100DD000C7F12006B840F1414140B1FBF3F603FBF7
:100DE0001611A2FB0645001BA94102D2761E8018EF
:100DF000594180EA010221FA0EF3C7F1200462FA98
:100E00000EF20CFA07F05A402CFA04F13043F0BD10
:100E100080EA010221FA0EF3002162FA0EF2604626
:100E20005A40F0BD8C46B1FBF2F102FB11C31B022C
:100E300043EA1063B3FBF2FC02FB1C331B024CEAD7
:100E4000002043EA1063B3FBF2FC02FB1C331B02DD
:100E50004CEA002043EA1063B3FBF2FC02FB1C33B4
:100E60001B024CEA002043EA1063B3FBF2FC02FBD6
:100E70001C324CEA0020002370470000002200F0E2
:100E800063B90000F8B40023002400260025102DCB
:100E900080F009810122AA4013000A681A40140058
:100EA0009C4240F0FE800A7912F00302012A04D02D
:100EB0000A7912F00302022A24D187685FF0030C3A
:100EC0002A00D2B252001CFA02FC37EA0C07D1F811
:100ED0000CC02A00D2B252001CFA02FC5CEA0707DE
:100EE000876042685FF0010C1CFA05FC32EA0C02D4
:100EF000D1F804C0CCF3001C1CFA05FC5CEA020229
:100F0000160046600A7912F00302032A14D0C7685B
:100F10005FF0030C2A00D2B252001CFA02FC37EA3E
:100F20000C07D1F808C02A00D2B252001CFA02FC09
:100F30005CEA07073E00C6600A7912F00302022A43
:100F40001ED12A00D20800EB8202176A5FF00F0C54
:100F500015F00702D2B292001CFA02FC37EA0C0725
:100F6000D1F810C015F00702D2B292001CFA02FCB0
:100F70005CEA07073E002A00D20800EB82021662F4
:100F800007685FF0030C2A00D2B252001CFA02FC80
:100F900037EA0C0791F804C01CF0030C2A00D2B207
:100FA00052001CFA02FC5CEA07073E0006604A6831
:100FB00012F4403F75D000220092414A126852F468
:100FC00080423F4F3A603E4A126812F480420092DB
:100FD000009A3C4A2F00BF0852F827705FF00F0CB0
:100FE00015F00302D2B292001CFA02FC37EA0C0799
:100FF000354A904201D1002623E0344A904201D183
:1010000001261EE0324A904201D1022619E0314AFF
:10101000904201D1032614E02F4A904201D10426C8
:101020000FE02E4A904201D105260AE02C4A904258
:1010300001D1062605E02B4A904201D1072600E0A7
:101040000826F6B215F00302D2B29200964037435A
:101050001C4A2E00B60842F82670234A1268A243A2
:101060004E68F60200D522431F4E32601F4E36688E
:10107000A6434F68BF0200D526431C4A16601C4A8F
:101080001268A2434F68BF0300D52243184E326056
:10109000184E3668A6434F68FF0300D52643154A0D
:1010A00016606D1CF3E6F1BC7047D2B2002A02D084
:1010B00089B2816102E089B20B048361704700004C
:1010C0004438024008380140000002400004024059
:1010D00000080240000C02400010024000140240D0
:1010E00000180240001C0240083C01400C3C01403A
:1010F000043C0140003C014010B504004FF47A70FC
:101100000D490978B0FBF1F00C490968B1FBF0F02A
:1011100000F0B2F8002801D001200CE0102C09D218
:10112000002221005FF0FF3000F091F804480460D5
:10113000002000E0012010BD080000200400002075
:10114000000000207047000000B500BF1300964665
:101150009446103928BFA0E80C50FAD85FEA417CC9
:1011600028BF0CC048BF40F8042BC90728BF20F88F
:10117000022B48BF00F8012B00BD000010F0070350
:10118000DFF800110A684FF6FF010A40DFF8F81097
:1011900051EA03210A43DFF8EC100A607047DFF8D8
:1011A000E4000068C0F30220704710B440B2002889
:1011B00004D40A01354B40B21A5407E00A01344BFB
:1011C00040B210F00F04234403F8042C10BC704705
:1011D00070B4030013F00704D4F10700052801D30D
:1011E000042001E0D4F10700251D072D01D20025C0
:1011F00000E0E51E012616FA00F0401E0140A9405D
:10120000012010FA05F56D1E2A401143080070BC3C
:10121000704710B50400601EB0F1807F01D301203B
:101220000EE0601E1B4908600F215FF0FF30FFF7E2
:10123000BCFF0020184908600720184908600020FA
:1012400010BD10B504002000FFF798FF10BD2DE978
:10125000F04104000D0016000027FFF7A0FF8046B4
:10126000320029004046FFF7B3FF0100200040B2E2
:10127000FFF79BFFBDE8F08110B504002000FFF7E9
:10128000C8FF10BD0CED00E00000FA0500E400E02E
:1012900018ED00E014E000E018E000E010E000E0ED
:1012A00080B500F0E9F800F034F800F09DF800F0A7
:1012B00079F86423322268496848FFF7B4F9664830
:1012C0000078442803D06448007864280CD10122B7
:1012D0004FF480516248FFF7E8FE00224FF40041CE
:1012E0005F48FFF7E2FEE4E75B480078472803D059
:1012F000594800786728DCD101224FF40041584852
:10130000FFF7D3FE00224FF480515548FFF7CDFE82
:10131000CFE780B592B006A83021FFF7AFFD01A856
:101320001421FFF7ABFD002000904E48006850F0FC
:1013300080504C4908604B48006810F08050009085
:101340000098002000904848006850F480404649CA
:1013500008604548006810F4804000900098022022
:1013600006900120099010200A9000200C9006A8F9
:10137000FEF70AFF002801D000F07CF80F20019052
:10138000002002900020039000200490002005908F
:10139000002101A8FFF742FB002801D000F06AF805
:1013A00013B000BD80B531482C4908604FF4165089
:1013B0002A49486000202949886000202749C860E0
:1013C0000020264908610C20244948610020234957
:1013D000886100202149C8612048FFF7E9F800280A
:1013E00001D000F047F801BD80B586B001A81421F6
:1013F000FFF744FD002000901D48006850F00100F8
:101400001B4908601A48006810F00100009000981D
:10141000002000901648006850F008001449086049
:101420001348006810F008000090009800224FF464
:1014300010410B48FFF739FE4FF410400190012096
:101440000290002003900020049001A90448FFF7B7
:1014500019FD07B000BD0000500000200C00002066
:10146000000C024040380240007000400044004040
:101470003038024072B6FEE780B50E48006850F47E
:1014800000700C4908600B48006850F480600949FE
:1014900008600848006850F480700649086003201E
:1014A000FFF7CFFE0F20FFF727FEFFF757FA0020C8
:1014B00002BD0000003C024019E050F8042BD307A5
:1014C00044BFA9F101039A18091F0023042942F817
:1014D000043BF9D25FEA817C134604D54FF0000C3F
:1014E000A2F800C09B1CC90744BF0021197050F826
:1014F000041B0029E1D1704710B450F8041B79B1E6
:101500000268436802440830DC0744BFA9F10104C3
:10151000E31852F8044B43F8044B091FF9D1ECE7E8
:1015200010BC704710B5074979441831064C7C440B
:10153000163404E00A68081D114488470146A14298
:10154000F8D110BD2C0000004C0000004EF6885170
:10155000CEF20001086840F470000860BFF34F8FBE
:10156000BFF36F8F4FF00070E1EE100A704700007C
:1015700049FFFFFF7C0000000C000020000000007D
:1015800079FFFFFF0C000000C400000000000020F5
:101590000000000000F00DF8002801D0FFF7C2FFA6
:1015A000AFF300800020AFF30080FFF779FE00F07A
:1015B00002F80120704700F001B8000007463846E5
:1015C00000F002F8FBE7000080B5AFF30080024AAC
:1015D00011001820ABBEFBE726000200034800689C
:1015E00003490978401801490860704784000020C9
:1015F00008000020FEE7FEE7FEE7FEE7FEE7704793
:101600007047704780B5FFF7E9FF01BD03480068E8
:1016100050F47000014908607047000088ED00E058
:101620000000000000000000010203040607080992
:1016300001488047014800470D1600084116000880
:10164000AFF30080FFF782FFFFF7A4FF1000000058
:101650000024F40001000000000000000102030467
:10166000FFF7FEBFFFF7FEBFFFF7FEBFFFF7FEBFAE
:10167000FFF7FEBFFFF7FEBFFFF7FEBFFFF7FEBF9E
:10168000FFF7FEBFFFF7FEBFFFF7FEBFFFF7FEBF8E
:10169000FFF7FEBFFFF7FEBFFFF7FEBFFFF7FEBF7E
:1016A000FFF7FEBFFFF7FEBFFFF7FEBFFFF7FEBF6E
:1016B000FFF7FEBFFFF7FEBFFFF7FEBFFFF7FEBF5E
:1016C000FFF7FEBFFFF7FEBFFFF7FEBFFFF7FEBF4E
:1016D000FFF7FEBFFFF7FEBFFFF7FEBFFFF7FEBF3E
:1016E000FFF7FEBFFFF7FEBFFFF7FEBFFFF7FEBF2E
:1016F000FFF7FEBFFFF7FEBFFFF7FEBFFFF7FEBF1E
:10170000FFF7FEBFFFF7FEBFFFF7FEBFFFF7FEBF0D
:10171000FFF7FEBFFFF7FEBFFFF7FEBFFFF7FEBFFD
:10172000FFF7FEBFFFF7FEBFFFF7FEBFFFF7FEBFED
:10173000FFF7FEBFFFF7FEBFFFF7FEBFFFF7FEBFDD
:10174000FFF7FEBFFFF7FEBFFFF7FEBFFFF7FEBFCD
:10175000FFF7FEBFFFF7FEBFFFF7FEBFFFF7FEBFBD
:10176000FFF7FEBFFFF7FEBFFFF7FEBFFFF7FEBFAD
:10177000FFF7FEBFFFF7FEBFFFF7FEBFFFF7FEBF9D
:10178000FFF7FEBFFFF7FEBFFFF7FEBFFFF7FEBF8D
:10179000FFF7FEBFFFF7FEBFFFF7FEBFFFF7FEBF7D
:0417A000FFF7FEBF92
:040000050800164198
:00000001FF
